:020000040800F2
:10000000201800201D020008D11100081F0C000854
:10001000F10F0008110800084B250008000000003F
:10002000000000000000000000000000B117000800
:10003000550800080000000075150008CD180008DC
:1000400037020008370200083702000837020008AC
:10005000370200083702000837020008370200089C
:100060003702000837020008590800083702000864
:10007000370200083702000837020008370200087C
:10008000370200083702000837020008370200086C
:10009000370200083702000837020008370200085C
:1000A000370200083702000837020008370200084C
:1000B00085190008051A00083702000837020008F1
:1000C000370200083702000837020008370200082C
:1000D00037020008852300083702000837020008AD
:1000E000370200083702000837020008370200080C
:1000F00037020008370200083702000837020008FC
:1001000037020008370200083702000837020008EB
:1001100037020008370200083702000837020008DB
:1001200037020008370200083702000837020008CB
:1001300000F002F800F063F80AA090E8000C824496
:100140008344AAF10107DA4501D100F058F8AFF273
:10015000090EBAE80F0013F0010F18BFFB1A43F0A5
:100160000103184788430000A843000010F8013B32
:100170000A4413F0030408BF10F8014B1D1108BF17
:1001800010F8015B641E05D010F8016B641E01F8C5
:10019000016BF9D1002D15D010F8014B03F00C03C1
:1001A0000C2BA1EB04040ABF10F8013BA4EB831451
:1001B000A4EB032405F1010314F8016B5B1E01F8A5
:1001C000016BF9D5914238BF10F8013BD1D370478C
:1001D0000023002400250026103A28BF78C1FBD850
:1001E000520728BF30C148BF0B607047642900F038
:1001F0008B80002070471FB51FBD10B510BD00F0EB
:1002000051F91146FFF7F7FF02F04EFA00F06FF9CF
:1002100003B4FFF7F2FF03BC02F0A7F909488047D7
:1002200009480047FEE7FEE7FEE7FEE7FEE7FEE7D8
:10023000FEE7FEE7FEE7FEE704480549054A064BF0
:1002400070470000D118000831010008201200207A
:1002500020180020201400202014002070470000E7
:100260000FB4044910B503AA029800F005F910BCB8
:100270005DF814FB340000200FB41CB5074B06AA30
:100280007B4469460090059800F0DDF8002069463F
:1002900000F0ECF81CBC5DF814FB0000E901000064
:1002A0002DE9F0410E460446002020622046E16818
:1002B000884730B3252805D0D4E901219047206A2A
:1002C000401CF2E7E168204600278847050018D067
:1002D000A5F14100192802D820354FF400673246B5
:1002E000294620462760FFF781FF40B1012804D04E
:1002F000F61D26F007060836D8E7361DD6E728464D
:10030000DAE7206ABDE8F0812DE9F04106460024D5
:1003100010687529314616A510D0AFF3008000286B
:1003200002DA404213A507E031688A0701D512A519
:1003300002E0490704D511A5012401E0AFF30080D4
:1003400000210A2206F1240709E0B0FBF2FCB0FB11
:10035000F2F302FB1C00303078541846491C002888
:10036000F3D123462A463046BDE8F04100F00CB8F0
:10037000000000002D0000002B0000002000000005
:1003800070477047704770472DE9F0470D46994612
:100390009246044600F124080168880604D5E06905
:1003A00021F01001216000E00120A84201DD471B7F
:1003B00000E00027A1697A1902EB0900081AA06180
:1003C0002078C00602D42046AFF30080002608E063
:1003D000D4E901211AF806009047206A401C761CD7
:1003E00020624E45F4DB2078C0060AD52046AFF3E4
:1003F000008006E0D4E9012130209047206A401CAB
:100400002062381EA7F10107F4DC07E0D4E90121DE
:1004100018F805009047206A401C2062281EA5F1AC
:100420000105F3DC2046AFF300802078000602D5FA
:100430000220BDE8F0870120FBE7000001694A1CAB
:1004400002610878704700B58FB0CDE90131002115
:10045000059105497944CDE9031011466846FFF737
:100460001FFF0FB000BD0000E5FFFFFF0A6802F8A4
:10047000010B0A6070470000074B70B50D467B44C6
:10048000FFF7E1FF0446284600F008F810B14FF0EE
:10049000FF3070BD204670BD0B220000007B00F0D5
:1004A00080007047754600F02BF8AE46050069469F
:1004B000534620F00700854618B020B5FFF7BCFE74
:1004C000BDE820404FF000064FF000074FF0000855
:1004D0004FF0000B21F00701AC46ACE8C009ACE8D6
:1004E000C009ACE8C009ACE8C0098D46704710B53A
:1004F0000446AFF300802046BDE81040FFF788BEF9
:1005000000487047C011002021B1826842F001020A
:10051000826003E0826822F001028260704700007E
:1005200010B504461248844208D10121401501F05B
:100530005FF80021601501F05BF817E00D48844278
:1005400008D10121001501F053F80021201501F018
:100550004FF80BE00848844208D10121C80301F09C
:1005600047F800214FF4004001F042F810BD0000B0
:100570000024014000280140003C014001460020C9
:100580008A6802F004020AB1012000E000207047EE
:100590000146C86C80B270470246002013680B40C9
:1005A0000BB1012000E000207047014600208A685E
:1005B00002F008020AB1012000E0002070470000AC
:1005C00030B502460020002350680F4C20400D79C2
:1005D0000C6844EA05242043506090680B4C20408E
:1005E000D1E902542C434D7944EA450420439060FC
:1005F000D06A20F470000C7C641EE4B2234340EA0D
:100600000350D06230BD0000FFFEF0FFFDF7F1FFA8
:10061000F0B504460D4600200021092D11DDE068EB
:10062000A5F10A0606EB4607072606FA07F18843F6
:10063000A5F10A0606EB460603FA06F10843E06058
:100640000CE0206905EB4507072606FA07F1884309
:1006500005EB450603FA06F108432061072A0FDA85
:10066000606B561E06EB86071F2606FA07F18843C5
:10067000561E06EB860605FA06F10843606322E083
:100680000D2A0FDA206BD61F06EB86071F2606FA07
:1006900007F18843D61F06EB860605FA06F10843E4
:1006A000206310E0E06AA2F10D0606EB86071F2624
:1006B00006FA07F18843A2F10D0606EB860605FA55
:1006C00006F10843E062F0BD816841F008018160F5
:1006D000704721B1826842F4A002826003E0826820
:1006E00022F4A00282607047816841F004018160B9
:1006F0007047000010B500244FF47A7001F0A0FF9D
:1007000000214FF0804001F0E8FD082001218140E8
:100710004209920002F1E022C2F8001100BF01215B
:10072000C00601F00AFD00BF2948007804282ED138
:10073000601C84B2052C14DB2648008826490988F1
:100740000844244908802548008825490988084428
:100750002249088023480088234909880844214900
:100760000880642001F06CFF012019490870002006
:10077000194908601A4908601B49086000214FF0B8
:10078000804001F0AAFD0121880701F0D6FC0A2C67
:10079000CADB10480088062190FBF1F0134908805D
:1007A0000E480088062190FBF1F0114908800D48A1
:1007B0000088062190FBF1F00E4908800846038866
:1007C0000B480288094801880BA0FFF749FD10BDBE
:1007D000B2100020BA100020A4100020BC1000208D
:1007E000A8100020BE100020AC100020B410002083
:1007F000B6100020B81000202072623D2564202031
:1008000067623D2564202062623D25640A00000085
:1008100000BFFEE708B50121042000F0D9FE4FF427
:10082000C050ADF8000010208DF8030003208DF8B3
:1008300002006946064800F0E9F84FF400610448F8
:1008400000F0BAF94FF48051014800F0B5F908BD45
:10085000000801407047000010B5102000F058F863
:1008600000B3102000F03AF81748007801280AD1A8
:100870008002164908604000086015480068401C66
:10088000134908601FE01048007802280BD140028D
:100890000E4908604000091F08600E480068401CAF
:1008A0000C4908600FE00848007803280BD14FF48A
:1008B00080600649091F086040000860064800681B
:1008C000401C0549086010BDB2100020140C014006
:1008D000A4100020AC100020A810002001490860DE
:1008E00070470000140401401CB50421002000F0F2
:1008F0006DF800208DF804000C208DF80500102004
:10090000009001208DF80600684600F015F81CBD27
:10091000014600200022074B1B6803EA0102054B39
:1009200014331B680B4013B10AB1012000E0002012
:100930007047000000040140002123498279002A09
:100940003AD00A46126803689A430B461A600A1D99
:10095000126803689A430B1D1A60027911440A68F1
:1009600003681A430A60184A0832126803689A43F7
:10097000154B08331A601A1D126803689A43124B0C
:100980000C331A604279102A0ED11A1F12680368BC
:100990001A430D4B08331A601A1D126803681A4374
:1009A000094B0C331A600DE00749427911440A687B
:1009B00003681A430A6005E0027911440A68036873
:1009C0009A430A60704700000004014030B50022DD
:1009D0008B071C0F0F2303FA04F20B4B8C1053F8F8
:1009E00024309343084C8D1044F8253023468C1056
:1009F00053F824308C07240F00FA04F42343024CEC
:100A00008D1044F8253030BD080001402DE9F0413B
:100A1000024600250026002000230024002791F82C
:100A200003C00CF00F0591F803C00CF0100CBCF1E2
:100A3000000F03D091F802C04CEA050591F800C000
:100A4000BCF1000F31D0146800202BE04FF0010CF6
:100A50000CFA00F3B1F800C00CEA03069E4220D164
:100A600083004FF00F0C0CFA03F7BC4305FA03FCAC
:100A70004CEA040491F803C0BCF1280F06D14FF0F2
:100A8000010C0CFA00FCC2F814C00AE091F803C093
:100A9000BCF1480F05D14FF0010C0CFA00FCC2F874
:100AA00010C0401C0828D1D31460B1F800C0BCF1BC
:100AB000FF0F34DD546800202EE000F1080C4FF0E9
:100AC000010808FA0CF3B1F800C00CEA03069E42D4
:100AD00021D183004FF00F0C0CFA03F7BC4305FA49
:100AE00003FC4CEA040491F803C0BCF1280F05D1C3
:100AF00000F1080C08FA0CF8C2F8148091F803C051
:100B0000BCF1480F07D100F1080C4FF0010808FABA
:100B10000CF8C2F81080401C0828CED35460BDE801
:100B2000F0810000F0B50A460023002400210025D2
:100B300000F00046B6F1004F02D11D4EF16901E010
:100B40001B4E7168C0F3034583B200F44016B6F53E
:100B5000401F08D121F07061154E766826F070664E
:100B6000134F7E6012E000F48016B6F5801F06D1A8
:100B7000032606FA05F4A14341F0706106E0460D34
:100B8000360103FA06F6B14341F0706122B1460D19
:100B9000360103FA06F6314300F00046B6F1004F85
:100BA00002D1034EF16101E0014E7160F0BD000021
:100BB00000000140416170470161704710B5044673
:100BC0000723012221460948FFF722FD012107489A
:100BD000FFF77FFD00BF02210448FFF7DDFC00287E
:100BE000F9D00248FFF7D4FC10BD000000240140FA
:100BF0002DE9F04107460C460025002608E038465E
:100C0000FFF7DCFF0544052001F01AFD701CC6B299
:100C1000A642F4DBB5FBF4F080B2BDE8F08100BF82
:100C2000FEE7000008B50121092000F0D1FC0121F8
:100C30000848FFF777FF4FF23A00ADF80000282090
:100C40008DF8030003208DF8020069460248FFF783
:100C5000DDFE08BD00023000000C014070B5024608
:100C60000024002500230020958A138B1B0445EAED
:100C7000030626F07F4404EA01068E4201D10120DA
:100C800000E0002070BD21B1028842F00102028024
:100C900004E002884FF6FE731A400280704700009D
:100CA00000B585B00121480500F072FC0121082043
:100CB00000F08EFCC020ADF8000003208DF802008B
:100CC0001C208DF8030069461148FFF79FFE11486C
:100CD00000F024F80020ADF808004BF6FF70ADF8E6
:100CE0000A003020ADF80C004FF48060ADF80E0023
:100CF0000001ADF810000848019001210548FFF7F8
:100D0000C2FF01A9034800F05BF805B000BD000078
:100D1000000C014000540040801A060010B5044643
:100D20000B48844209D10121480500F041FC002113
:100D30004FF4001000F03CFC08E00121880500F0B1
:100D400037FC00214FF4800000F032FC10BD0000A1
:100D50000054004021B1028842F48072028004E015
:100D600002884FF6FF631A400280704721B1028863
:100D700042F40072028004E002884FF6FF531A40EA
:100D8000028070470CB502460020002301930093B7
:100D900000920B0F019321F07F41019B1BB1009B3F
:100DA0001433009303E0090C009B18330093009B5D
:100DB0001B680B400BB1012000E000200CBD0000BF
:100DC0002DE9F04385B004460D460026B1460427C0
:100DD000DFF8CC80A6884FF6C0700640684600F069
:100DE00017FCDDF808802F48B8FBF0F01FFA80F9F7
:100DF00046EA0906A68020884FF6FE71084020804A
:100E000000262949286888420CD828684000B8FB89
:100E1000F0F087B2042F00DA04273E4309F1010005
:100E2000208427E0E8884BF6FF71884206D12868C5
:100E300000EB4000B8FBF0F087B209E0286800EB57
:100E4000C00101EB0010B8FBF0F087B247F4804717
:100E5000C7F30B0008B947F0010747F40040064309
:100E60004FF4967009FB00F04FF47A7190FBF1F0AB
:100E7000401C2084A683208840F001002080268822
:100E80004FF6F5300640A888698908430643268056
:100E9000A88929890843208105B0BDE8F0830000B6
:100EA00000127A0040420F00A086010012B141F00A
:100EB000010102E04FF6FE73194001827047018282
:100EC0007047000070B504460D4600BF4FF4003176
:100ED0001C48FFF757FF0028F8D101211948FFF7F8
:100EE00039FF00BF18491748FFF7B8FE0028F9D0AE
:100EF000002278211348FFF7D9FF00BF134911489A
:100F0000FFF7ACFE0028F9D021460E48FFF7D7FFC7
:100F100000BF0E49891C0B48FFF7A0FE0028F8D03F
:100F200029460848FFF7CBFF00BF0849891C054840
:100F3000FFF794FE0028F8D001210248FFF716FFC2
:100F400070BD000000540040010003008200070053
:100F50002DE9F0410746884614461D46284600F014
:100F600033F8C5F1040007FA00F60F20284100EA23
:100F70000800064306F00F06E21704EBD262521196
:100F8000920002F1E022D2F800212146E31704EB9F
:100F9000D3635B11A4EB431C012303FA0CF31A4344
:100FA0002046E31704EBD3635B119B0003F1E023BE
:100FB000C3F800210348005D40EA061001490855C6
:100FC000BDE8F08100E400E00146072323EA0102C6
:100FD0001202054B18684FF6FF031840034B1843E5
:100FE0001043014B186070470CED00E00000FA055B
:100FF00000BFFEE708B50121042000F0E9FA0F2048
:10100000ADF8000010208DF8030003208DF80200D9
:1010100069460A48FFF7FAFC01210848FFF7CAFDB4
:1010200002210648FFF7C6FD04210448FFF7C2FD70
:1010300008210248FFF7BEFD08BD0000000801407E
:1010400030B589B005460C460121042000F0A0FA15
:101050000121082000F0BCFA4FF44070ADF82000E8
:1010600018208DF8230003208DF8220008A91D48C0
:10107000FFF7CCFCADF81850ADF814400020ADF8E7
:101080001A00ADF8160005A9174801F029F96020EB
:10109000ADF804000120ADF806000020ADF80C000A
:1010A00001A9114801F086F801A90F4801F0D2F812
:1010B00008210D4801F067F808210B4801F06CF891
:1010C0000121094801F039F80121074801F026F80B
:1010D0000021054801F0FCF80021034801F0FAF86E
:1010E00009B030BD000C01400008004070B5044656
:1010F0000D4629462046FFF7A3FFFFF77BFF70BD93
:1011000070B504460D46002C13DD002D11DD0121C4
:101110002D48FFF74FFD02212B48FFF74DFD04211D
:101120002948FFF749FD08212748FFF743FD00BF85
:1011300000BF002C13DA002D11DA01212248FFF73D
:101140003BFD02212048FFF735FD04211E48FFF733
:1011500031FD08211C48FFF72FFD64426D42002C31
:1011600013DD002D11DA01211748FFF723FD0221BD
:101170001548FFF721FD04211348FFF71BFD082147
:101180001148FFF719FD00BF6D42002C13DA002D46
:1011900011DD01210C48FFF70FFD02210A48FFF77E
:1011A00009FD04210848FFF707FD08210648FFF75D
:1011B00001FD644200BFA1B2044801F089F8A9B260
:1011C000024801F087F870BD0008014000080040A7
:1011D000704708B54FF4A06000F056F80A208DF86B
:1011E000000002208DF801008DF8020001208DF82A
:1011F0000300684600F010F81C208DF80000002065
:101200008DF801008DF8020001208DF8030068467A
:1012100000F002F808BD000070B5002100230F2285
:10122000C47804B3154C246804F4E064C4F5E064A5
:10123000210AC1F10403CA40447804FA03F1847816
:101240001440214309010E4C0678A155047804F09E
:101250001F050124AC4005786D11AD0005F1E025B6
:10126000C5F8004109E0047804F01F050124AC40F2
:10127000044D0678761145F8264070BD0CED00E06F
:1012800000E400E080E100E002490143024A11600D
:10129000704700000000FA050CED00E010B50020DA
:1012A00000F03BF810BD2DE9F05F06460F46904672
:1012B0001C46DDF828A04FF0000BE11704EB51713C
:1012C000C910A4EBC10131B92046E11704EB5171FB
:1012D000C1F3C70506E02046E11704EB5171C910C0
:1012E000491CCDB23D4614E02946304600F08DF849
:1012F000B1460AE059460BF1010B1AF8010001F062
:101300002DF909F1010000F0FF09C145F2DB681C6D
:10131000C5B2A542E8DBBDE8F09F70B506460024E3
:1013200015E004F1B001C8B201F011F9002001F09C
:101330000EF9102001F00BF9002504E0304601F011
:101340000DF9681CC5B2802DF8DB601CC4B2082CF6
:10135000E7DB70BD10B5FFF7A3FC642001F070F966
:10136000AE2001F0F4F8202001F0F1F8102001F097
:10137000EEF8B02001F0EBF8C82001F0E8F800200A
:1013800001F0E5F8102001F0E2F8402001F0DFF86C
:10139000812001F0DCF8FF2001F0D9F8A12001F054
:1013A000D6F8A62001F0D3F8A82001F0D0F83F200D
:1013B00001F0CDF8A42001F0CAF8D32001F0C7F85D
:1013C000002001F0C4F8D52001F0C1F8F02001F0B0
:1013D000BEF8D92001F0BBF8222001F0B8F8DA20DD
:1013E00001F0B5F8122001F0B2F8DB2001F0AFF8FF
:1013F000202001F0ACF88D2001F0A9F8142001F0B4
:10140000A6F8AF2001F0A3F810BD70B504460D4654
:1014100005F1B001C8B201F09AF8102141EA1410A8
:1014200001F095F804F00F0141F0010001F08FF890
:1014300070BD00002DE9F04180460E46174600249D
:101440007D0131464046FFF7E0FF00BF06E00D4951
:10145000485D01F083F86D1C601CC4B2102CF6DBF3
:10146000701CC1B24046FFF7D0FF002406E00549DA
:10147000485D01F073F86D1C601CC4B2102CF6DBE3
:10148000BDE8F081540000202DE9F047064689466A
:1014900017469A464FF0000800240025BAF1010FC4
:1014A00003D0BAF1020F5ED125E020E0785D20384C
:1014B00000F0FF087E2E04DD002609F1010000F097
:1014C000FF0949463046FFF7A0FF002409E008EB7A
:1014D0004801264A02EB4101085D01F03FF8601C1B
:1014E000C4B2062CF3DBB01DC6B2681CC5B2785D71
:1014F0000028DBD137E032E0785D203800F0FF08CB
:10150000782E04DD002609F1010000F0FF094946AC
:101510003046FFF77AFF002407E004EB0811144A75
:10152000505C01F01BF8601CC4B2082CF5DB09F11B
:101530000100C1B23046FFF768FF002408E004EB69
:10154000081108310A4A505C01F008F8601CC4B266
:10155000082CF4DB06F10800C6B2681CC5B2785D41
:101560000028C9D100BF00BFBDE8F087483B000894
:10157000703D00087047000001460020034A506893
:1015800020F44040084350607047000000100240C3
:1015900029B1064AD2690243044BDA6104E0034AE6
:1015A000D2698243014BDA617047000000100240AB
:1015B00029B1064A12690243044B1A6104E0034A46
:1015C00012698243014B1A6170470000001002400B
:1015D00029B1064A92690243044B9A6104E0034A26
:1015E00092698243014B9A617047000000100240EB
:1015F00029B1064AD2680243044BDA6004E0034A88
:10160000D2688243014BDA6070470000001002404C
:1016100030B500210022002400232D4D6D6805F017
:101620000C0121B1042905D0082923D105E0294D59
:10163000056022E0274D05601FE0254D6D6805F42B
:101640007012234D6D6805F48034022505EB92423B
:101650001CB9214D554305600BE01D4D6D6805F427
:1016600000351DB11C4D5543056002E0194D554331
:10167000056002E0174D056000BF00BF144D6D68A6
:1016800005F0F0010909154D6B5C0568DD4045600A
:101690000F4D6D6805F4E061090A104D6B5C4568FB
:1016A000DD4085600A4D6D6805F46051C90A0B4D37
:1016B0006B5C4568DD40C560054D6D6805F44041D3
:1016C000890B074D6B5CC568B5FBF3F5056130BD53
:1016D0000010024000127A0000093D003A0000208C
:1016E0004A0000202DE9F04F87B007460D46164608
:1016F0002B48008802F048F90290384602F02CF995
:101700002849019002F054F98346029902F046F804
:10171000824602F005F980462348008802F034F939
:101720000290284602F018F91E49019002F040F993
:101730008346029902F032F8824602F0F1F80690F0
:101740001A48008802F020F90290304602F004F9AD
:101750001449019002F02CF98346029902F01EF818
:10176000824602F0DDF881464FEA0841069841EAD8
:10177000002040EA0904C4F3C4000390C4F38520A8
:101780000490C4F3C44005900598C102049801EB8D
:1017900040110398084480B207B0BDE8F08F000004
:1017A000B410002000007F43B6100020B8100020C5
:1017B000704710B5FFF736FA10BD10B500F002F80B
:1017C00010BD00000CB50020019000903348006867
:1017D00040F480303149086000BF3048006800F4B0
:1017E000003000900198401C0190009818B90198B1
:1017F000B0F5A06FF1D12948006800F4003010B1B5
:101800000120009001E0002000900098012843D1C1
:101810002348006840F0100021490860084600682D
:1018200020F0030008600846006840F002000860ED
:101830001A484068194948600846406848600846A8
:10184000406840F4806048600846406820F47C109E
:1018500048600846406840F4E81048600846006860
:1018600040F08070086000BF0C48006800F0007015
:101870000028F9D00948406820F003000749486073
:101880000846406840F00200486000BF03484068D6
:1018900000F00C000828F9D10CBD00000010024037
:1018A00000200240042808D14FF0E021096941F0EE
:1018B00004014FF0E022116107E04FF0E0210969D7
:1018C00021F004014FF0E0221161704770470000E1
:1018D00010B51348006840F001001149086008463F
:1018E0004068104908400E494860084600680E49A3
:1018F00008400B4908600846006820F48020086012
:101900000846406820F4FE0048604FF41F008860DD
:10191000FFF753FF4FF000600449086010BD00005E
:10192000001002400000FFF8FFFFF6FE08ED00E0A7
:1019300008B501210820FFF74BFE4FF44060ADF8D9
:10194000000010208DF8030003208DF80200694686
:101950000A48FFF75BF801210520FFF739FE102048
:10196000ADF8000048208DF8030069460448FFF7F1
:101970004DF810210248FFF71FF908BD000C014087
:101980000008014010B50121880700F0E2FBA0B17A
:101990000121880700F0CEFB08480078401C074969
:1019A000087008460078032807DD00214FF08040CA
:1019B00000F0C3FB04200149087010BDB2100020E4
:1019C0000EB501210846FFF7E3FDC720ADF804007E
:1019D00041F61F40ADF800000020ADF80600ADF85C
:1019E000020069464FF0804000F07AFC0122114667
:1019F000900700F0BFFB00214FF0804000F09DFBFE
:101A00000EBD00002DE9F05FFE48008800F00100E7
:101A100000287DD0FC480088401CFB490880FB481A
:101A20000088401CF9490880F9480088401CF849A2
:101A30000880F8480088401CF6490880F64800886D
:101A4000401CF5490880F5480088401CF34908808F
:101A5000F3480088401CF2490880F2480088401C86
:101A6000F0490880F0480088401CEF490880EF48A2
:101A70000088401CED490880ED480088401CEC4976
:101A80000880EC480088401CEA490880EA48008841
:101A9000401CE9490880E9480088401CE749088063
:101AA0000120E7490870DF480088642872DB0020C5
:101AB000DC490880E3480068C8280ADDE24800687D
:101AC000C82806DDE1480068C82802DD0020E0499A
:101AD0000860DC480068C82807DBDB480068C828C5
:101AE00003DBDA480068C82854DAD6480068D649CB
:101AF0000968884217DDD3480068D44909688842DC
:101B000011DDD0480068C82809DBCF48006800E034
:101B1000B4E2C82803DBCD480068C82803DA0120F6
:101B2000CB49086036E0C8480068C6490968884261
:101B300015DDC5480068C549096888420FDDC14800
:101B40000068C82807DBC0480068C82803DBBF4816
:101B50000068C82803DA0220BD4908601AE0BB48C3
:101B60000068B8490968884214DDB8480068B64979
:101B7000096888420EDDB3480068C82807DBB24810
:101B80000068C82803DBB1480068C82802DA0320CF
:101B9000AF4908609F480088B0F5FA7F4EDB00200F
:101BA0009C490880AB480068401CAA490860084668
:101BB0000168A9A0FEF754FBAC48006818B9ACA0B6
:101BC000FEF74EFB0EE0A9480068012803D1ADA046
:101BD000FEF746FB06E0A5480068022802D1AEA049
:101BE000FEF73EFBB1480168B1A0FEF739FB97480C
:101BF00003689548026893480168B2A0FEF730FB7D
:101C00009348006818B9B4A0FEF72AFB16E0904884
:101C10000068012803D1B4A0FEF722FB0EE08C4837
:101C20000068022803D1B4A0FEF71AFB06E088483A
:101C30000068032802D1B4A0FEF712FB72480088A6
:101C4000642876DB0020704908800A210520FEF711
:101C5000CFFFB14908800846008801F095FE804614
:101C600001F070FD06464FF06632AC4B01F082FB8E
:101C7000044601F01DF9AA4908600846006801F011
:101C800061FD8046A74AA84B01F072FC8246A54A36
:101C9000921EA64B01F0E6F906460022A44B01F085
:101CA00069FB044601F036FB80490860084600687D
:101CB000002801DA002008607C480068642802DD02
:101CC00064207A49086079489AA102689B48FEF727
:101CD000D3FA02239A4A00214020FFF7D5FB0223C2
:101CE000964A00214020FFF7CFFB70480068642827
:101CF00007DB6E4800686E2803DC642000F0CAFF32
:101D000077E06A4800685A2807DB6848006864285A
:101D100003DC5A2000F0BEFF6BE0644800685028E6
:101D200008DB624800685A2804DC502000F0B2FF4B
:101D30005FE027E15D480068462807DB5B480068F4
:101D4000502803DC462000F0A5FF52E05748006809
:101D50003C2807DB55480068462803DC3C2000F09F
:101D600099FF46E051480068322807DB4F48006879
:101D70003C2803DC322000F08DFF3AE04B4800683D
:101D8000282807DB49480068322803DC282000F0B7
:101D900081FF2EE0454800681E2807DB43480068A5
:101DA000282803DC1E2000F075FF22E03F48006871
:101DB000142807DB3D4800681E2803DC142000F0CF
:101DC00069FF16E0394800680A2807DB37480068D1
:101DD000142803DC0A2000F05DFF0AE033480068A5
:101DE000002806DB31480068012802DC002000F0F2
:101DF00051FF1748006818B9072204210020A1E00C
:101E0000A3E00000100400405C1000205E100020E1
:101E10006010002062100020641000206610002076
:101E2000681000206A1000206C1000206E10002046
:101E30007010002072100020741000207610002016
:101E4000781000204C10002050100020541000206A
:101E50000C000020040000200D0AD0D0CABBCAB17B
:101E6000B3A43A25642073200D0A00000800002066
:101E7000D0B6BBF5D7B4CCAC3AB5C8B4FDD0B6BB80
:101E8000F50D0A00D0B6BBF5D7B4CCAC3ABAECC964
:101E9000ABD0B6BBF50D0A00D0B6BBF5D7B4CCAC11
:101EA0003AC2CCC9ABD0B6BBF50D0A000000002089
:101EB000B5E7B3D8B5E7C1BF3A25642025250D0A9B
:101EC00000000000723D25642020673D256420202D
:101ED000623D25640D0A0000D1D5C9ABA3BAB0D7C5
:101EE000C9AB0D0A00000000D1D5C9ABA3BABAEC4A
:101EF000C9AB0D0A00000000D1D5C9ABA3BAC2CC52
:101F0000C9AB0D0A00000000D1D5C9ABA3BAC0B659
:101F1000C9AB0D0A00000000140000206626823FB5
:101F2000180000209A999999999926409999F13F1A
:101F3000000059403A256420252500007910002032
:101F40008D100020FFF776FA1CE050480068012849
:101F500005D1042211460020FFF76CFA12E04B482D
:101F60000068022805D1052204210020FFF762FA4B
:101F700008E046480068032804D106220421002016
:101F8000FFF758FA424800880A2877DB00204049CA
:101F9000088040480078042870D13F48008801F04C
:101FA000F3FC06463D48006801F0D6FC07463C4974
:101FB00001F0FEFC0546314601F0F0FB044601F05D
:101FC000AFFC384908603848008801F0DDFC06465F
:101FD0003648006801F0C0FC0746314901F0E8FCD2
:101FE0000546314601F0DAFB044601F099FC304920
:101FF00008603048008801F0C7FC06462E4800689B
:1020000001F0AAFC0746264901F0D2FC05463146FC
:1020100001F0C4FB044601F083FC284908601B481A
:102020000068012807D019480068022803D0174823
:102030000068032802D10120214908601E48026877
:102040001A48016815480068FFF74CFB1D490880D5
:10205000642000F0F5FA01200E49087000200F49B5
:102060000860124908601449086000214FF0804060
:1020700000F033F90121880700F05FF8124800886A
:1020800020F0010010490880BDE8F09F0C000020FE
:1020900064100020B2100020B4100020A410002012
:1020A00000007F434C100020B6100020A810002034
:1020B00050100020B8100020AC1000205410002058
:1020C00010000020B01000201004004070B505463C
:1020D0000C461048C06940F002000E49C8610E4825
:1020E0000580001F04800C482038008840F0010063
:1020F00009492039088008482C38008840F0010040
:1021000005492C39088002231D2203210120FEF7F6
:102110001FFF70BD001002402C04004021B1028856
:1021200042F08002028004E002884FF67F731A407A
:1021300002807047CA430282704721B1028842F090
:102140000102028004E002884FF6FE731A4002800A
:10215000704730B50246002000230024158A05EAA6
:102160000103958905EA010413B10CB1012000E0D7
:10217000002030BD1AB183890B43838102E083893B
:102180008B43838170470A460021018B4FF6F7731A
:1021900019401143018370470A460021018B4FF219
:1021A000FF7319404FF6FF7303EA022319430183BB
:1021B0007047000070B5002400220023058C4FF604
:1021C000FF6635400584028C8388848B4FF68F75BB
:1021D0002C404FF6FC752C400D882C434FF6FF55D4
:1021E0002A400D894FF6FF7606EA05252A434D88D9
:1021F00006EA05252A43154DA84202D0144DA842EF
:102200001DD14FF2FF752A404D894FF6FF7606EA41
:1022100005252A434FF6FF352A408D8806EA052515
:102220002A434EF6FF752B404DF6FF752B408D89E6
:1022300006EA05152B43CD8906EA05152B43838055
:102240008483CD888587028470BD0000002C014006
:102250000034014070B5002200230024058C4EF6A6
:10226000FF7635400584038C8488828B48F6FF75A1
:102270002A404FF6FF452A400D884FF6FF7606EAC2
:1022800005252A434DF6FF752B400D8906EA0535D5
:102290002B434D8806EA05352B430B4DA84202D04F
:1022A0000A4DA84208D14BF6FF752C408D894FF698
:1022B000FF7606EA85152C4384808283CD88A0F8BA
:1022C0004050038470BD0000002C014000340140E8
:1022D00081877047A0F840107047818470470000E4
:1022E000002202881D4B98420ED01D4B98420BD005
:1022F000B0F1804F08D01B4B984205D01A4B984242
:1023000002D01A4B984204D14FF68F731A404B8873
:102310001A43174B984207D0164B984204D04FF6F9
:10232000FF431A40CB881A4302808B8883850B8831
:1023300003850A4B98420BD0094B984208D00E4BAC
:10234000984205D00D4B984202D00D4B984201D1D6
:102350000B7A03860123838270470000002C014022
:10236000003401400004004000080040000C004020
:1023700000100040001400400040014000440140B3
:102380000048014010B540F22551064800F018F809
:1023900038B1044800F0D0F8C4B22146014800F03A
:1023A000D0F810BD0038014021B1828942F40052BA
:1023B000828104E082894DF6FF731A408281704762
:1023C00070B50246002400230025002040F66A165E
:1023D000B14200D100BFC1F3421501F01F03012635
:1023E00006FA03F3012D02D19689334006E0022D4F
:1023F00002D1168A334001E0968A33400C1201263E
:1024000006FA04F41688344013B10CB1012000E040
:10241000002070BDF0B503460024002600250020F2
:1024200040F66A17B94200D100BF1846C1F3421402
:1024300001F01F06012707FA06F5012C01D10C3027
:1024400004E0022C01D1103000E014301AB107680A
:102450002F43076002E00768AF430760F0BD00004C
:102460002DE9F04786B005460E460024A24600BF7F
:10247000A1460027B08900B100BF2F462C8A4CF638
:10248000FF700440F08804432C82AC894EF6F310B0
:102490000440B08831890843718908430443AC8102
:1024A000AC8A4FF6FF400440B0890443AC8201A8D7
:1024B000FFF7AEF81F48874202D1DDF810A001E017
:1024C000DDF80CA0A88900F4004040B10AEBCA0076
:1024D00000EB0A1031684900B0FBF1F807E00AEBA5
:1024E000CA0000EB0A1031688900B0FBF1F86420E3
:1024F000B8FBF0F004012009642101FB1089A889D0
:1025000000F4004040B1322000EBC900B0FBF1F014
:1025100000F00700044308E0322000EB09106421BA
:10252000B0FBF1F000F00F0004432C8106B0BDE8D1
:10253000F08700000038014001468888C0F3080099
:102540007047C1F308028280704700BFFEE710B5F4
:10255000044621460020FEF7B5FC10BD10B5044628
:1025600021464020FEF7AEFC10BD00BF70470000C2
:1025700000B587B001214FF40170FFF729F8202042
:10258000ADF8180000208DF81B0006A91948FEF7C9
:102590003DFA4FF40040FEF7EFFF1748FDF7C0FF8C
:1025A000002001908DF808008DF809004FF460209C
:1025B00003900020049001208DF8140001A90E481A
:1025C000FDF7FEFF01210C48FDF79EFF0A48FEF7CC
:1025D0007BF800BF0848FDF7E8FF0028FAD106485D
:1025E000FEF782F800BF0448FDF7C8FF0028FAD1C3
:1025F00007B000BD000801400024014010B56FF095
:102600000400FFF74FF90A4800680A49B0FBF1F0EF
:10261000094908700846007800EB4001C1EBC01082
:102620004FF6FF7101EAC0000449088010BD0000A8
:102630001C00002000127A00300000203200002030
:102640000146114A12884A434FF0E0235A610022A2
:102650009A611A46126942F001021A6100BF4FF0F6
:10266000E022106900F001021AB100F48032002A61
:10267000F5D04FF0E022126922F001024FF0E02382
:102680001A6100229A6170473200002000BF054A9B
:10269000128802F04002002AF9D0C2B2014B1B1D81
:1026A0001A80704700380140FFF712F9FFF760FF0A
:1026B000FEF7B0F84FF4A060FEF7E6FD4FF4E1300E
:1026C00000F0A0FBFFF79AFFFFF732F9FEF70CF9D5
:1026D000FEF77FFDFFF774F9FEF70CF8FEF73AFE00
:1026E000472140F2E730FFF7F1FCFEF7D7FDFFF797
:1026F00060F847216320FEF7F9FC002211461046DE
:10270000FEF798FE012200211020FEF793FE022220
:1027100000212020FEF78EFE032200213020FEF74C
:1027200089FE002404E04FF47A70FFF789FF641CEF
:10273000052CF8DD01E000F0B5FBFCE710B55C48C6
:102740000068002858D15B480068042805D16FF064
:1027500009010846FEF7D4FCA8E0564800680328A3
:1027600005D16FF01D013220FEF7CAFC9EE05148F2
:102770000068022805D16FF013012820FEF7C0FC85
:1027800094E04C480068012805D16FF00901192038
:10279000FEF7B6FC8AE04748006820B914210846D5
:1027A000FEF7AEFC82E043480068401C28B91921BE
:1027B0006FF00900FEF7A4FC78E03E480068801C3A
:1027C00028B928216FF01300FEF79AFC6EE0394813
:1027D0000068C01C28B932216FF01D00FEF790FC84
:1027E00064E034480068001D00285FD16FF00901E3
:1027F0000846FEF785FC59E02D480068012855D1B0
:1028000000210846FEF77CFC2B480068012825D1F2
:102810002A4908604FF47A70FFF712FF4FF4006105
:102820002748FEF7C7F94FF47A70FFF709FF142124
:102830000846FEF765FC002404E04FF47A70FFF7C9
:10284000FFFE641C022CF8DD00210846FEF758FC50
:102850000020174908601949086027E016480068F9
:1028600002281DD10120154908604FF47A70FFF746
:10287000E7FE4FF480511248FEF79CF914210846F8
:10288000FEF73EFC4FF47A70FFF7DAFE00210846AF
:10289000FEF736FC0020064908600849086005E09C
:1028A00005480068032801D100BFFEE710BD000005
:1028B00010000020500000200C0000200800002024
:1028C00000080140F1480068D0B9F04808300068BD
:1028D000B0B9EE480C30006890B9EC483030006870
:1028E00001280DD1E94834300068012808D1E748B3
:1028F00038300068012803D1001FE5490860C3E1B2
:10290000E2480068D8B9E14808300068B8B9DF4843
:102910000C300068012812D1DC48303000680128F2
:102920000DD1DA4834300068012808D1D748383052
:102930000068012803D1001FD5490860A4E1D348ED
:102940000068E0B9D14808300068012817D1CF48A5
:102950000C300068012812D1CC48303000680128C2
:102960000DD1CA4834300068012808D1C748383032
:102970000068012803D1001FC549086084E1C348ED
:10298000006801281BD1C14808300068B8B9BF48A9
:102990000C300068012812D1BC4830300068012892
:1029A0000DD1BA4834300068012808D1B748383012
:1029B0000068012803D1C01EB549086064E1B3482E
:1029C000006801281BD1B14808300068012816D1E1
:1029D000AE480C30006890B9AC483030006801282F
:1029E0000DD1AA4834300068012808D1A7483830F2
:1029F0000068012803D1801EA549086044E1A3486E
:102A00000068012824D1A1480830006801281FD19E
:102A10009E480C30006801281AD19C48303000686C
:102A2000012815D1994834300068012810D1974801
:102A30003830006801280BD194481030006838B94C
:102A400092482C30006818B90020914908601BE1B9
:102A50008E480068012825D18C480830006801287C
:102A600020D18A480C30006801281BD187483030BB
:102A70000068012816D1854834300068012811D13A
:102A800082483830006801280CD180481030006836
:102A9000012807D17D482C30006818B900207C49F6
:102AA0000860F1E079480068012825D177480830AE
:102AB0000068012820D175480C30006801281BD11E
:102AC000724830300068012816D1704834300068F0
:102AD000012811D16D483830006801280CD16B48AD
:102AE0001030006840B969482C300068012803D1D3
:102AF000002067490860C7E06448006801281AD1CF
:102B0000624808300068012815D160480C30006820
:102B1000012810D15D483030006860B95B4834301E
:102B20000068012807D1594838300068012802D1CF
:102B300057490860A8E05548006801281BD1534850
:102B400008300068012816D150480C300068012870
:102B500011D14E483030006801280CD14B48343038
:102B6000006840B9494838300068012803D1022084
:102B70004749086088E04548006801281BD1434860
:102B800008300068012816D140480C300068012840
:102B900011D13E483030006801280CD13B48343018
:102BA0000068012807D139483830006818B9032077
:102BB0003749086068E03548006801281AD1334871
:102BC00008300068012815D130480C300068012811
:102BD00010D12E483030006801280BD12B483430FA
:102BE000006838B929483830006818B903202849E6
:102BF000086049E025480068012819D123480830B9
:102C00000068012814D121480C30006801280FD138
:102C10001E483030006858B91C483430006838B954
:102C20001A483830006818B90320194908602BE0A9
:102C300016480068012827D1144808300068012888
:102C400022D112480C30006801281DD10F483030C5
:102C50000068012818D10D4834300068012813D1CC
:102C60000A483830006801280ED109480068C01CA5
:102C700018B96FF00300064908600548006803288A
:102C800002D10420024908607047000004812142FB
:102C90005000002038B50446322C54D00EDC142CE1
:102CA0006CD006DC002C7DD0012C16D00A2C6FD104
:102CB0006FE01E2C59D0282CF9D14DE05A2C1ED093
:102CC00006DC3C2C36D0462C2BD0502C7CD11FE07F
:102CD000642C0BD06F2C77D16DE03D480823802207
:102CE000002100900846FEF7DEFA6EE0394807231F
:102CF0006022032100902020FEF7D5FA65E03648D7
:102D000007236022032100902020FEF7CCFA5CE02C
:102D1000324807236022032100902020FEF7C3FAE7
:102D200053E02F4807236022032100902020FEF764
:102D3000BAFA4AE02B4807236022032100902020A2
:102D4000FEF7B1FA41E028480723602203210090F2
:102D50002020FEF7A8FA38E0244807236022032148
:102D600000902020FEF79FFA2FE0214807236022E1
:102D7000032100902020FEF796FA26E01D48072345
:102D80006022032100902020FEF78DFA1DE009E06B
:102D90001AE0194807236022032100902020FEF743
:102DA00082FA12E0154807236022032100902020B8
:102DB000FEF779FA09E01248072360220321009008
:102DC0002020FEF770FA00E000BF00BF38BD000011
:102DD0005401002054050020540600204407002020
:102DE0004408002044090020440A0020440B00202D
:102DF000440C0020440D0020440E0020440F00200D
:102E0000C010002010B586B00446012144F2040031
:102E1000FEF7DEFB4FF40070ADF8140003208DF8D0
:102E2000160018208DF8170005A91C48FDF7EEFDC7
:102E30004FF48060ADF8140004208DF8170005A948
:102E40001648FDF7E3FD25208DF8000003208DF8DE
:102E500001008DF8020001208DF803006846FEF79E
:102E6000DBF901940020ADF80800ADF80A00ADF8D8
:102E70000C00ADF810000C20ADF80E0001A90848B8
:102E8000FFF7EEFA012240F225510548FFF7C2FA9A
:102E900001210348FFF788FA06B010BD0008014081
:102EA0000038014010B5FFF70DFDFFF747FC10BDDE
:102EB00021F00042A2F16052B2F5801F01F0004300
:102EC00028BFD2F17F6C0BD95FEA001C43EAC20233
:102ED00042EB507018BF704728BF20F001007047C8
:102EE000B2F5801FBCBF184670474FEA410C1CF575
:102EF000001F02D2084600F022BE70B500F0E4FACE
:102F000000000089FFF7F6BF4FF00040A0F58000F9
:102F10007047000010B591EA030F48BF83F00043EB
:102F200000F12E83841A71EB030C05D2121943EBC6
:102F30000C03001B61EB0C01DFF824E14FEA115494
:102F4000A4EB135C1EEA430F18BF9EEA445F73D0E4
:102F500023EA0E03DCF1200E21EA045143F480132E
:102F600032D322FA0CFE10EB0E0023FA0CFE41EBDA
:102F70000E01CCF1200E03FA0EFE10EB0E0051F103
:102F80000001B1F5801FCCF1200E32D201EB0451CB
:102F900012FA0EF2BDE8104058BF7047401C38BF0F
:102FA0005FEA420218BF7047002814BF20F00100FA
:102FB00041F100014FEA410313F5001F38BF70478C
:102FC000A1F1C04100F0CEBA012A43EB0302ACF1FB
:102FD000200CDCF11F0E32BF4FF0000E23FA0CF371
:102FE00010EB030041EB0451B4EB115FD0D0A1EB27
:102FF000045101F5801149085FEA300001EB0451EA
:103000000ED350F1000038BF12FA0EFE08D1BDE811
:103010001040C9E7401C38BF5FEA4202CAD1C3E78B
:10302000BDE810404FEA410313F5001F38BF704759
:10303000A1F1C04100F096BA9EEA445F08D011EABF
:103040005E0FBDE8104004BF01F000410020704752
:10305000BDE8104070B500F037FA00BF64FBBE3E1B
:103060000000E0FF2DE9C04130B4DFF8A0C23CEA27
:10307000111418BF3CEA131400F0EC8081EA030538
:103080001CEA111444EAD57418BF1CEA131500F0A9
:10309000C780A4EB05044FF0004545EAC12145EA8D
:1030A000C32341EA505143EA525304F17F749942D9
:1030B00004F500344FEAC0204FEAC22208BF904214
:1030C00000F09C804FEA13650FF24016765D4FEAE0
:1030D000134506FB05F7C7F1807706FB07F74FEAB4
:1030E000D737A7FB03687642C8F58038A7FB06CE22
:1030F00038BFA8F1010807FB08E64FF0000EA6FB59
:10310000028CE6FB03CEDCF1000CCEF1004E38BFA2
:10311000AEF1010EA6FB0C584FF000074FF0000572
:10312000E6FB0E87A1FB08C6A0FB07CE16EB0E063A
:1031300045F10005E1FB076515F1E04E7EBFA4F502
:1031400080345FEA46066D4116F1800745F10005BF
:103150004FEA17274FEA066647EA0567A6F1DE46FB
:10316000B6F1805F4FEA15251FD9384624F0010CCF
:1031700005EBC471BCF1FE6F01EB0C1102D8F0BC81
:10318000BDE8008124425CBF01F5801E9EEAC47F39
:1031900002D4F0BCBDE80081244238D4F0BCA1F1D7
:1031A000C041BDE8004100F0DDB94FEAD22242EA59
:1031B00043524FEAD323A7FB02864FEAD02040EACE
:1031C000415007FB03661EEA0E0F4FEAD12105FBB3
:1031D000026658BFA6EB0056B6EB00564FEA520EF9
:1031E0004EEAC37E18EB0E0E56EB530EBDD518EB10
:1031F00002085E417F1C55F10005B6E74FF48015CB
:103200004FF000074FF000064FF00008ADE7F0BCAC
:103210004FF0000001F1C04101F00041BDE8008124
:1032200011EA0C1F0CEA131500D00CE013EA0C1F76
:1032300000F025804FF00000F0BC81EA030101F0AE
:103240000041BDE80081F0BCBDE8004181EA030116
:1032500000F088B9F0BCBDE8004170B500F034F969
:10326000097EFC3E00F007B881EA03014FF0000040
:1032700001F00041704781EA030100F073B9F0BC2E
:10328000BDE800414FF0000021497047FFFDFBF908
:10329000F7F5F4F2F0EEEDEBE9E8E6E4E3E1E0DE89
:1032A000DDDBDAD8D7D5D4D3D1D0CFCDCCCBCAC8FB
:1032B000C7C6C5C4C2C1C0BFBEBDBCBBBAB9B8B722
:1032C000B6B5B4B3B2B1B0AFAEADACABAAA9A8A815
:1032D000A7A6A5A4A3A3A2A1A09F9F9E9D9C9C9BE3
:1032E0009A9999989797969595949393929191908E
:1032F0008F8F8E8E8D8C8C8B8B8A8989888887871F
:103300008685858484838382828181800000FF0793
:103310000000F87F4FEA41034FEA5353A3F580635F
:10332000D3F11E03C8BFD3F1210C0CDD4FF00042D6
:1033300042EAC12242EA505232FA03FC8CEAE17CB2
:10334000ACEBE1707047102BC4BF0020704703F551
:10335000787CBCF1FF3F04D06FF0004282EA21008C
:10336000704770B500F0B0F8499224800020704793
:10337000F2E70000DFF848C170B51CEA111E1EBF5D
:103380001CEA13159EEA0C0F95EA0C0F00F06F80F3
:1033900081EA030423EA4C134EEAD47E21EA4C115D
:1033A00041F4801143F48013AE44A1FB024CA0FB16
:1033B0000365AEF17F7E361955EB0C05A1FB034C7E
:1033C0004CF10003A0FB021C16EB0C06654153F107
:1033D0000003094218BF46F0010613F4007F0BD129
:1033E0004FEA03314FEA0530340341EA155140EA10
:1033F00016506FF003020AE04FEAC3214FEAC520DE
:10340000F40241EA555140EA56506FF0020202EBD5
:103410002E4201EB025585EACE710AD05FEA440CD8
:1034200018BF24F0004450F1000041F1000120EAEF
:10343000D47040F2FE7C624500D270BDA84214BF39
:103440004FF080444FF04044002E08BF0024BEF1EE
:10345000806FA8BFA1F1C041BDE8704080F28280BA
:103460004FF0000001F1C04101F0004170479EEAB9
:103470000C0F0CEA131518BF95EA0C0F06D04FF08D
:10348000000081EA030E0EF0004170BD00F01CF850
:103490008900013E00F007B800F009B84FEA430C7C
:1034A0005FEA5C5C08D081EA030100F05BB84FEA98
:1034B000410C5FEA5C5CF6D14FF0000001497047B7
:1034C0000000FF070000F87F0EF1020E2EF0030E41
:1034D0005EF8046B364205D4012A43EB030515F56B
:1034E000001F12D8012841EB010C1CF5001F0CD85D
:1034F0000ED14FEAD17C15F5001F0CEB4C0C0CF1F2
:10350000020C08BF4CEBD37C04E04FF0080C01E048
:103510004FEAD37C0CEB4C0526FA05F606F00706BD
:10352000B6F1040C06D20EEB860CBDE870404CF0F0
:10353000010C6047DFE80CF0090B02024FF000417C
:103540004FF00000A1F5002170BD1946104601287A
:1035500051EB010418BFD4F5001484BF002001F022
:10356000004170BD0808A0F500114FEA3101704715
:1035700010B591EA030F48BF83F000433FF5D2AC8A
:10358000841A71EB030C07D212198CF0004C43EB38
:103590000C03001B61EB0C01DFF8A4E14FEA1154AE
:1035A000A4EB135C1EEA430F18BF9EEA445F00F0D1
:1035B000B08023EA6E03524221EA0451C3EB6E034A
:1035C00038BF5B1EDCF1200E25D322FA0CFE10EB77
:1035D0000E0043FA0CFE41EB0E01CCF1200E03FA73
:1035E0000EFE10EB0E0051F10001CCF1200E29D49B
:1035F00012FA0EF201EB0451BDE8104058BF7047BB
:10360000401C1CBFB2F1004F704700280CBF491C82
:1036100020F00100704712EB020E43EB030218BFCB
:103620004FF0010E4EEA4202ACF1200CDCF11E0E0E
:1036300054D943FA0CFE10EB0E0051F1FF31CCF1DE
:103640001E0ED5D50EF1010E12FA0EFE404141EBD1
:10365000010101EB445C5FEA5C5C10D910EBDE70A9
:1036600001EB045138BFBEF1004FBDE8104018BF58
:10367000704700280CBF491C20F00100704730D271
:103680004FEAD42C11F5001124F400641BD0B1FAD8
:1036900081F20B3AA41AA41ED2F12003914030FA11
:1036A00003F31943904001EBCC71002C01EB045162
:1036B000BDE81040A8BF704701F1C0414FF00000C5
:1036C00001F000417047B0FA80F310FA03F100D125
:1036D00010BDE41A173C4805C90AE4E701EB0451A0
:1036E00010BD491001EB0451BDE810404FEA300015
:1036F00002E04FF0000170474A0008BF0042F8D0D6
:10370000B2F5001F28BF704701F000414FF00000E4
:1037100070479EEA445F07D011EA5E0FBDE8104093
:1037200004BF002100207047BDE8104070B5FFF7CE
:10373000CBFE00BF40DFF63E83F0004110467047ED
:103740000000E0FF43004FEAD30C4FEA3C0C43403B
:103750001FBF40070CF1605113F0FE4F70471CF083
:10376000006F03D100200CF0004170470CF00043C3
:1037700043EA507010B540EACC0000F09AF900BF5F
:10378000000000924FEA0001FFF7ECBE4FF000414D
:103790004FF00000A1F50021704700004FF47F0CAE
:1037A0001CEAD0121EBF1CEAD11392EA0C0F93EA56
:1037B0000C0F00F0858090EA010F48BF42F4807240
:1037C00040F4000C41F400002CF07F4120F07F40D9
:1037D00000B58142A2EB03020FF2081CACEB504E85
:1037E000C0F100009EF800E04FEA4E0E00FB0EFC18
:1037F00038BF49004FEA2C1C02F5FA020CFB0EF30D
:103800004FEACE1E4FEA112C4FEAC1210EEB635E48
:1038100042EB22420EFB0CFC4FEA1C5300FB03114F
:103820004FEA112C4FEA01310EFB0CFC4FEADC4C45
:1038300000FB0C11C14228BF09184CEB03335DF8A3
:1038400004EB10EB410143EBC250B2F57C0F38BFE3
:10385000704729D512F0F00F1CBF00F1C04000F0F6
:1038600000407047008182838485868788898B8C9D
:103870008D8E8F919293959697999A9C9D9FA0A2D9
:10388000A3A5A7A8AAACAEB0B2B3B5B7B9BCBEC029
:10389000C2C5C7C9CCCED1D4D7D9DCDFE2E6E9ECCA
:1038A000F0F3F7FAFE0000004FEA400C0CF1807CC8
:1038B000BCF17E4F28BF7047B0F1C04000F03FB967
:1038C00090EA010F0CEAD11348BF42F480726245BE
:1038D00038BF634507D213F47F0F16D080EA01008A
:1038E00000F00040704710B500F0E3F8097EFC3EA0
:1038F00000F005B880EA010000F00040704780EA5F
:10390000010000F0004000F01AB912F47F0F04BF6C
:103910000248704780EA010000F011B90000C07F42
:1039200041000B0ED3F19E0208D950F400034FEA78
:10393000032323FA02F048BF4042704710B500F05D
:10394000B8F800BF49922480002070476FF0004211
:1039500082EA20007047000010F0004148BF40425A
:10396000B0FA80F310FA03F2C3F19D030BD051EAD1
:10397000C35101EB1220530638BF704700F101001C
:1039800008BF20F001007047B0FA80F310FA03F28C
:10399000C3F19D030AD0D90501EB1220530638BFAD
:1039A000704700F1010008BF20F0010070470000DF
:1039B0004FF47F0C1CEAD0121EBF1CEAD11392EA0E
:1039C0000C0F93EA0C0F00F0478090EA010F48BFFC
:1039D00042F480724FF0004C4CEA00204CEA012186
:1039E00002EB0302A0FB0113A2F50002002918BF9D
:1039F00043F001035B0028BF4FEA330342EB22424E
:103A00005FEA132C4CEBC2502EBFBCEB436FB2F5F8
:103A10007C0F70474FEA036CBCF1004F08BF20F0E9
:103A20000100B2F57C0F38BF70470BD582F0FF0262
:103A300012F5803FC8BF704700F1C040D8BF00F00A
:103A40000040704700F5000C5FEA4C0C48BF70471F
:103A5000B0F1C04000F073B890EA010F0CEAD11346
:103A600048BF42F48072624538BF634504D280EAA1
:103A7000010000F00040704710B500F01AF800BFD8
:103A80008900013E00F007B800F009B85FEA410C78
:103A90005FEA1C6C08D080EA010000F050B85FEAD1
:103AA000400C5FEA1C6CF6D14FF00040A0F580009E
:103AB00070470EF1020E2EF0030E5EF8044B244206
:103AC00004D44FEA4102B2F17F4F11D84FEA4003CC
:103AD000B3F17F4F0CD80ED14FEAD07CB2F17F4FBB
:103AE0000CEB4C0C0CF1020C08BF4CEBD17C04E04D
:103AF0004FF0080C01E04FEAD17C0CEB4C0324FAA8
:103B000003F404F00704B4F1040C06D20EEB840CA9
:103B1000BDE810404CF0010C6047DFE80CF00708EE
:103B200002024FF00040A0F5800010BD08464200A0
:103B300018BFD2F1807288BF00F0004010BDFF2195
:103B400041EAD050C00570470000000000000000AE
:103B5000002F000000000700070000147F147F14EE
:103B600000242A7F2A120062640813230036495574
:103B7000225000000503000000001C22410000004C
:103B800041221C000014083E08140008083E0808E2
:103B9000000000A06000000808080808000060603D
:103BA0000000002010080402003E5149453E00007C
:103BB000427F4000004261514946002141454B315E
:103BC000001814127F10002745454539003C4A492A
:103BD000493000017109050300364949493600069C
:103BE0004949291E00003636000000005636000004
:103BF000000814224100001414141414000041227F
:103C0000140800020151090600324959513E007C56
:103C10001211127C007F49494936003E4141412240
:103C2000007F4141221C007F49494941007F090929
:103C30000901003E4149497A007F0808087F0000D9
:103C4000417F4100002040413F01007F0814224194
:103C5000007F40404040007F020C027F007F04084C
:103C6000107F003E4141413E007F09090906003EA8
:103C70004151215E007F09192946004649494931D1
:103C80000001017F0101003F4040403F001F2040F4
:103C9000201F003F4038403F0063140814630007B2
:103CA0000870080700615149454300007F41410009
:103CB00000552A552A55000041417F0000040201A9
:103CC0000204004040404040000001020400002087
:103CD00054545478007F48444438003844444420C5
:103CE00000384444487F00385454541800087E0972
:103CF00001020018A4A4A47C007F0804047800003A
:103D0000447D4000004080847D00007F10284400F6
:103D10000000417F4000007C04180478007C080407
:103D2000047800384444443800FC24242418001843
:103D3000242418FC007C080404080048545454202F
:103D400000043F444020003C4040207C001C2040B8
:103D5000201C003C4030403C004428102844001CFB
:103D6000A0A0A07C004464544C44141414141414F3
:103D70000000000000000000000000000000000043
:103D8000000000F8000000000000003330000000D8
:103D900000100C06100C06000000000000000000DF
:103DA00040C07840C0784000043F04043F04040051
:103DB000007088FC08300000001820FF211E000061
:103DC000F008F000E018000000211C031E211E0076
:103DD00000F00888700000001E21232419272110FC
:103DE00010160E000000000000000000000000009F
:103DF000000000E018040200000000071820400046
:103E000000020418E0000000004020180700000035
:103E1000404080F0804040000202010F0102020099
:103E2000000000F0000000000101011F010101007D
:103E3000000000000000000080B0700000000000E2
:103E4000000000000000000000010101010101016B
:103E50000000000000000000003030000000000002
:103E600000000000806018040060180601000000D7
:103E700000E010080810E000000F102020100F00D4
:103E8000001010F8000000000020203F202000005B
:103E900000700808088870000030282422213000B3
:103EA00000300888884830000018202020110E00BB
:103EB0000000C02010F8000000070424243F240064
:103EC00000F80888880808000019212020110E0039
:103ED00000E0108888180000000F112020110E004B
:103EE00000380808C83808000000003F0000000043
:103EF0000070880808887000001C222121221C0004
:103F000000E010080810E0000000312222110F002C
:103F1000000000C0C00000000000003030000000C1
:103F20000000008000000000000080600000000031
:103F3000000080402010080000010204081020004A
:103F40004040404040404000040404040404040095
:103F5000000810204080000000201008040201002A
:103F6000007048080808F00000000030360100002A
:103F7000C030C828E810E0000718272423140B00DD
:103F80000000C038E0000000203C23020227382057
:103F900008F8888888700000203F202020110E003B
:103FA000C030080808083800071820202010080032
:103FB00008F808080810E000203F202020100F001B
:103FC00008F88888E8081000203F202023201800E7
:103FD00008F88888E8081000203F2000030000004F
:103FE000C03008080838000007182020221E0200F0
:103FF00008F808000008F808203F210101213F20AF
:10400000000808F8080800000020203F20200000D9
:1040100000000808F8080800C08080807F000000C9
:1040200008F888C028180800203F20012638200002
:1040300008F8080000000000203F20202020300069
:1040400008F8F800F8F80800203F003F003F200083
:1040500008F830C00008F808203F200007183F008B
:10406000E01008080810E0000F10202020100F00BA
:1040700008F808080808F000203F210101010000AD
:10408000E01008080810E0000F18242438504F00F2
:1040900008F8888888887000203F2000030C3020B2
:1040A00000708808080838000038202121221C00F0
:1040B000180808F8080818000000203F2000000039
:1040C00008F808000008F808001F202020201F0022
:1040D0000878880000C83808000007380E01000082
:1040E000F80800F80008F800033C0700073C03004C
:1040F000081868808068180820302C03032C3020B2
:104100000838C800C83808000000203F2000000020
:1041100010080808C8380800203826212020180078
:10412000000000FE020202000000007F404040004C
:10413000000C30C000000000000000010638C00084
:1041400000020202FE000000004040407F0000002C
:104150000000040202020400000000000000000051
:10416000000000000000000080808080808080804F
:104170000002020400000000000000000000000037
:1041800000008080808000000019242222223F202D
:1041900008F8008080000000003F112020110E0070
:1041A0000000008080800000000E112020201100FF
:1041B000000000808088F800000E112020103F20B1
:1041C0000000808080800000001F22222222130035
:1041D000008080F0888888180020203F2020000080
:1041E0000000808080808000006B94949493600035
:1041F00008F8008080800000203F210000203F2040
:1042000000809898000000000020203F202000003F
:10421000000000809898000000C08080807F00002F
:1042200008F8000080808000203F24022D3020000C
:10423000000808F8000000000020203F20200000B7
:104240008080808080808000203F20003F20003FD1
:104250008080008080800000203F210000203F20DF
:104260000000808080800000001F202020201F0090
:10427000808000808000000080FFA12020110E00BF
:104280000000008080808000000E112020A0FF80B0
:10429000808080008080800020203F21200001005D
:1042A00000008080808080000033242424241900B2
:1042B000008080E0808000000000001F20200000BF
:1042C0008080000000808000001F202020103F2000
:1042D000808080000080808000010E300806010090
:1042E00080800080008080800F300C030C300F0035
:1042F00000808000808080000020312E0E31200060
:10430000808080000080808080818E70180601008F
:1043100000808080808080000021302C22213000AD
:1043200000000000807C020200000000003F4040CE
:1043300000000000FF00000000000000FF0000007F
:104340000002027C800000000040403F00000000AE
:104350000006010102020404000000000000000049
:104360003A787820200000000000000000000000E3
:10437000000000003A202020202020200000000023
:1043800000000000000000003E3E000000000000B1
:1043900000000000000000000000000020200000DD
:1043A00000000000000000003E3E00000000000091
:1043B00000000000000000000000000020200000BD
:1043C00000000000000000003E3E00000000000071
:1043D000000000000000000000000000202000009D
:1043E0000000000000000000312E0000000000006E
:1043F000000000000000000000000000322E00005D
:1044000000000000000000000000000000000000AC
:10441000332E00000000000000000000000000003B
:10442000000000003A787820200000000000000022
:1044300000000000000000003A7878202000000012
:104440000000000000000000000000003A202020D2
:1044500020202020000000000000000000000000DC
:104460003A787820200000000000000000000000E2
:10447000000000003A7878202000000000000000D2
:1044800000000000000000003A2020202020202012
:104490000000000000000000000000003A787820D2
:1044A00020000000000000000000000000000000EC
:1044B0003A78782020000000000000000000000092
:1044C000000000003A787820200000000000000082
:1044D00000000000000000003A7878202000000072
:1044E0000000000000000000000000000C45000873
:1044F00000000020C01000006C010008D049000836
:10450000C010002060070000D001000803196400FB
:10451000016004A24A040BC0090102030406070853
:1045200009212116611A6005020406083913F8886A
:104530000122FF0532F849131F0801227F102011C4
:104540009F80F000106002CC8080FC4020FF1008AB
:104550002000101F04047E0100003F40404F4044F3
:10456000474078404006202020BEAA0112BE0C1011
:104570000600008080AF0C12FF10100CAF8080008E
:10458000002030AC632018571304FC04100A00000C
:104590002267221212124001227F053120200530AD
:1045A0000080920112FE313120100B002214488449
:1045B0007F0408142290101CE4040FF40404F44453
:1045C000CF444444040040407D44447D4445447C01
:1045D00044457C4011E0200608080C0A099541A0DA
:1045E00063FF4101C6FF42200580C0404093113463
:1045F00043C060131360E0C0126046C408D01010BE
:1046000030204080731006C0101010FF040718D02F
:104610007097126041400920FCA0E07C30303012DD
:10462000B0090C98B0C0E0B098884D140680F01C1A
:1046300007035910040081FEA353FC0F92300A7C3B
:104640002F20203030100080AB100480E13F6E320C
:104650001801141A08080060C0476424FFFF2627C9
:10466000A1E00000FEC606040484C4641CD84220F5
:104670000111392101200B183824048AFBF1213162
:10468000107E800E077F49494848FF484848711D01
:1046900007A71004070D182D1805080C060302368D
:1046A0000F2E1407080C000F080C9930090600089B
:1046B0000B0F080406A0B95230080706027FFF035B
:1046C000011813030209C30101241014020202039A
:1046D00061190D0703E17F0D19113131212D2C5185
:1046E00010070404FF0606061C0004740202000101
:1046F00091FA199115F800042C40C080420611E08F
:10470000F4140B8088FCC08080F0584040F60116FD
:104710007B6C0A0404C4741C2664C404AF03498679
:104720002005C07F0080872987218C1E3829033906
:104730009342C0051D3803800480FF1F7F1A7F98B5
:104740001AC00340040080E06B1B0101D820084020
:10475000430207D110909C313E1D13032C044CFCE6
:10476000D84803198B44114343FB6222824202134F
:10477000FA0BCBEBB981FDAF1818FE8F808040306B
:104780001E03007FC7C4446603074F497838007092
:104790007F056813FF07003F01003F001F323213FF
:1047A000043F30190F3FD5880D1C242730180C0604
:1047B0000100C0711F451004040632152805003F92
:1047C00021217B19C329D070050C08080FFB192380
:1047D00021D749276D7E03D9334D2403198E072035
:1047E0000C07C7063101FC1C05010103022C03C1A3
:1047F0003C3013C070F0D070D0D010D0F028E82832
:1048000028A8A8E828021C07E8E828A828A8BB03CD
:10481000100AF0B0B0F03030B0B030062004309064
:1048200010073EF050031DAD032D300510190F0485
:10483000FF01FFFFFFC7FFCFF0FF03F8EF9FFFE08F
:104840003FFCDF00FFE014300800FFF0C73CFF072B
:104850000A300707FCFFFEC6FC1762FF801607231D
:104860002006081CE0FFFC1520093FC3FFFF80BFA6
:10487000FF9F37200AFFFFF9EFFFEFFFFC03441013
:104880000DE0FF7FF100FFBFDF7F7FC7014DDF3FFE
:10489000FFBD0410150709090B1310131317171781
:1048A00033232023232F2F212F08122F051C0E2006
:1048B000273110371113161110101717410458071C
:1048C0001313121713134C0125F0023C30F02D770F
:1048D00005013AF07D27030134F02D070507371F46
:1048E00000F0063A10006D6707053600BE00270489
:1048F00005320041010532005101053700AD310597
:10490000053200B1400532009101052C00B10105CE
:1049100031000D103106052C00011140052B00E37C
:104920003010010526001101053B000D1631070569
:1049300026000117400525003DFA08053500510104
:104940000537000D1A3108052100011C40051F0024
:104950005E23F80905340091010532000D1F31096D
:10496000051D00012040051C00A22001052E00D1DC
:1049700001052D000D24310A0518000125400517F9
:1049800000E3302001052800F31030FE0529000E59
:10499000291F310B0512000D2A710B0513003DDA9A
:1049A000060534005D17070537000D2E730CE50072
:1049B000012F40D5001145063810000D2CED0C0FCD
:1049C000103A3FD00C523A760D1C6C0BBDE00D0036
:040000050800021DD0
:00000001FF
